:020000040000FA
:10000000020C75E4FF1211080210B0020DF5D28344
:10001000E559B40204E4F55922E559B4010C752AF6
:100020000375360112107812156322020052121560
:10003000431214F81215021215A51215991214A9DB
:1000400012159D1215A11213B912146412150C0287
:10005000154A32021005E709F608DFFA8046E7097B
:10006000F208DFFA803E88828C83E709F0A3DFFA8A
:100070008032E309F608DFFA8078E309F208DFFA54
:10008000807088828C83E309F0A3DFFA8064898220
:100090008A83E0A3F608DFFA805889828A83E0A386
:1000A000F208DFFA804C80D280FA80C680D4806962
:1000B00080F28033801080A680EA809A80A880DA5F
:1000C00080E280CA803389828A83ECFAE493A3C8F1
:1000D000C582C8CCC583CCF0A3C8C582C8CCC583B3
:1000E000CCDFE9DEE7800D89828A83E493A3F608FA
:1000F000DFF9ECFAA9F0EDFB2289828A83ECFAE0C1
:10010000A3C8C582C8CCC583CCF0A3C8C582C8CC5F
:10011000C583CCDFEADEE880DB89828A83E493A3AF
:10012000F208DFF980CC88F0EF60010E4E60C388E2
:10013000F0ED2402B4040050B9F582EB2402B404BB
:100140000050AF23234582239000A673F8BB010D16
:10015000E58229F582E5833AF583E8F0225006E945
:100160002582C8F622BBFE05E92582C8F222C5F029
:10017000F8A3E028F0C5F0F8E58215827002158337
:10018000E038F022E88FF0A4CC8BF0A42CFCE98EB0
:10019000F0A42CFC8AF0EDA42CFCEA8EF0A4CDA8EF
:1001A000F08BF0A42DCC3825F0FDE98FF0A42CCDF8
:1001B00035F0FCEB8EF0A4FEA9F0EB8FF0A4CFC5D8
:1001C000F02ECD39FEE43CFCEAA42DCE35F0FDE462
:1001D0003CFC2275F008758200EF2FFFEE33FECD58
:1001E00033CDCC33CCC58233C5829BED9AEC99E5F7
:1001F0008298400CF582EE9BFEED9AFDEC99FC0F87
:10020000D5F0D6E4CEFBE4CDFAE4CCF9A88222B84E
:1002100000C1B90059BA002DEC8BF084CFCECDFCD3
:10022000E5F0CBF97818EF2FFFEE33FEED33FDEC60
:1002300033FCEB33FB10D703994004EB99FB0FD849
:10024000E5E4F9FA227818EF2FFFEE33FEED33FDE7
:10025000EC33FCC933C910D7059BE99A4007EC9BE6
:10026000FCE99AF90FD8E0E4C9FAE4CCFB2275F076
:1002700010EF2FFFEE33FEED33FDCC33CCC833C887
:1002800010D7079BEC9AE899400AED9BFDEC9AFC8D
:10029000E899F80FD5F0DAE4CDFBE4CCFAE4C8F93C
:1002A00022EB9FF5F0EA9E42F0E99D42F0E89C4582
:1002B000F022E6FC08E6FD08E6FE08E6FF22E6FB83
:1002C00008E6F908E6FA08E6CBF822ECF608EDF6BF
:1002D00008EEF608EFF622D083D082E493F6087495
:1002E0000193F608740293F608740393F67404738A
:1002F0008A838982E4738F6A8D6B1208891208E001
:10030000E004120888120928F583E004F0E56A6029
:100310000E120889120943E0656A70030203E912AC
:1003200008891209301208BBC39402EE94005012DF
:10033000120889120930F583E475F00112016E028A
:1003400004A91208891208B4C394F4EE940140166B
:100350001208891208901209201208776077120893
:100360009B120920806C1208891208B4C39402EE13
:100370009400406112086A60481208891208FAF570
:1003800083E0B4010C1208891208FAF583E4F080C6
:10039000441208891208CAF583E0B4011112089BBF
:1003A0001208F2120877600612089B1208A21208BF
:1003B000891209281208851208CAF5837401F08091
:1003C0001412089B1208F2120877600912089B1297
:1003D00008F21208A9120889120943E56A1208886E
:1003E000120938F0A3F00204A9120889120938751D
:1003F000F00112016E1208891208B464024E600303
:10040000020483120889120930F583E4F0A312086C
:1004100069605D1208891208CAF583E064017036CC
:100420001208891208E0E0C3941E502A12088912AB
:1004300008FAF58374011208881208CA1208851296
:100440000902F583E4120869605F12089B240FF526
:1004500082E4340080501208891208FA12088512CA
:100460000902F58374011208881208E0E4F080396B
:1004700012089B1208C2120877602E12089B1208FD
:10048000C280231208891208B464F47003EE640178
:10049000701712088912089012091812087760095B
:1004A00012089B1209181208A912086A6070120833
:1004B00089120902F583E06401703112088912087B
:1004C000E0E0C3941E402512089B1208C212087770
:1004D000601A1208891209021208971208C212083B
:1004E00077600912089B1208C21208A91208891223
:1004F00008CAF583E064017025120889120928F5FD
:1005000083E0C3941E40171208891208CA12089784
:100510001208F2120877600612089B1208A2220144
:1005200017000112FF203229000000000000000027
:1005300000000000000000000000000000000000BB
:1005400000000000000000000000000000000000AB
:1005500000000000000000000000025B0032045DAB
:100560000000000004210000000002250800C10472
:100570000127000128004400A20000000043009F62
:100580000000004D0092000000000000000000008C
:10059000000000C101C10001130001140001150099
:1005A0000116006060000000000000000000000074
:1005B000000000000000000000000000000000003B
:1005C000000000000000000000000000000000002B
:1005D000000000000000000000000000000000001B
:1005E000000000000000000000000000000000000B
:1005F00000000000000000000000000000000000FB
:1006000000000000000000603200600000000000F8
:1006100000000000000000000000000000000000DA
:1006200000000000000000000000000000000000CA
:1006300000000000000000000000000000008F67C4
:10064000E4F568F56CF56BF56AF569EF75F00CA4E7
:100650002430F8E6FB7012120EFC2431F81202CBA3
:10066000120F0C2430F8760122EB640160030207BC
:100670005B120EFC2431F81202BEC31202A1600309
:10068000020746F568E568C3940C505274922568D9
:10069000120EF4120F13E0FDEDFE120F1FE0FDED40
:1006A000FFE48F6C8E6BF56AF569120F0C2431F83C
:1006B0001202B2AB6CAA6BA96AA869C31202A1703C
:1006C0001574922568120EF4E4F0120F13E4F01280
:1006D0000F1FE4F0800874032568F56880A7900078
:1006E0009F120F2B2492120EF4EFF09000A0120F25
:1006F0002B2493120F17EFF09000A1120F2B2494CC
:10070000120F23EFF07F007E1E121385E4F568E4DC
:100710002568FFE4341EFE74922568120EF4E0FD95
:1007200012136B0568E568C3940D40E3120F0C24A7
:100730002AF87603AF677401A807088002C333D88C
:10074000FCF4FF1212C3120F0C2430F8E4F6120F5F
:100750000C2431F81202D700000000227570FF75DA
:1007600071147572C27573FF75741375759F757604
:10077000FF75771475783D7579FF757A15757BA9C6
:10078000757CFF757D11757E5D7A1379D2120860D4
:100790007571147572CD7573FF75740075750E756E
:1007A00076FF7577127578E07579FF757A15757B28
:1007B000AC757CFF757D11757E857A1479291208D8
:1007C000607571147572D87573FF757412757545FF
:1007D0007576FF7577127578FC7579FF757A1575E2
:1007E0007BAF757CFF757D11757EAD7BFF7A1479CB
:1007F00015120B527570FF7571147572E37573FFE6
:100800007574127575657576FF757713757818753B
:1008100079FF757A15757BB2757CFF757D11757ED4
:10082000D57BFF7A1379FF120B527570007571003A
:100830007572007573FF7574117575FD7576FF75AA
:10084000770F7578C6757900757A00757B00757CB1
:10085000FF757D0F757E3E7BFF7A1379E9020B529F
:100860007BFF120B527570FF22F0E56B75F013A43D
:10087000240FF582E43400F583E0FBA3E0FAA3E063
:10088000F9EA494B22F583E4F0E56B75F00AA422FE
:100890002469F582E43400F583E4F0E56B75F01328
:1008A000A4222406F582E43400F583A3E0FAA3E051
:1008B000F90202F02460F582E43400F583E0FEA33F
:1008C000E0222403F582E43400222468F582E43433
:1008D0000022E56775F013A42400F582E4340022B9
:1008E0002465F582E43400F58322A3F0EE75F0135D
:1008F000A4222406F582E43400222469F582E4343B
:1009000000222467F582E434002275F013A4241237
:10091000F582E43400F583222409F582E4340022D0
:10092000240CF582E43400222466F582E4340022AB
:100930002462F582E43400222460F582E43400F578
:1009400083E4222464F582E43400F58322E4F56430
:10095000F563F562F561F565C2EDAFBDAEBEFCFDB8
:10096000E5242FF524E5233EF523ED3522F522EC91
:100970003521F521E526152670021525E5264525A4
:10098000706220045FF525752632FB7A08120D800F
:100990008F648E638D628C61D20475BB06E4F5654D
:1009A000E56525E024B8F582E43415F583E493FE8B
:1009B000740193FFE4FCFDAB64AA63A962A861C360
:1009C0001202A14017E56525E024CCF582E4341538
:1009D000F583E493F55B740193F55C220565E565A9
:1009E000B40ABD22E52645257016300413F5257599
:1009F00026327B32FA120D808F608E5F8D5E8C5DA9
:100A000022E4FE120DB90806E618700106EE75F034
:100A10000CA42429F8E664016003020AA4120DCB99
:100A20007014120DC2E6700E120DB9E4F608F6123B
:100A30000DC27601806E120DC2E664017029E55C7C
:100A400024FBFDE55B34FFFC120DB9E6FA08E6B5C0
:100A50000515ECB50211AF06121334BF0109AF063C
:100A6000C202121285803D120DC2E664017024128A
:100A70000DB9E6FC08E6B55C1AECB55B16AF0612DC
:100A80001334BF010EAF06D202121285120DC2E45A
:100A9000F68011AF06121334EF7009120DC2E6B4DE
:100AA0000102E4F60EEE64046003020A0322E4F598
:100AB00067F56BF56AF569F568300169F567E56713
:100AC000C3940C4003020B5174922567120EF4E09C
:100AD000FF90009FE0FEEF6E704374932567120F46
:100AE00017E0FF9000A0E0FEEF6E70317494256770
:100AF000120F23E0FF9000A1E0FEEFB5061FE567AF
:100B000075F00384FF120F367600087601E559640C
:100B1000016005C2021212857FDF021350740325A3
:100B200067F5678099E4F567120F34E6FE08E6641E
:100B3000014E7014120F34E4F608F6E559640160B2
:100B400007D202AF671212850567E567C3940440B8
:100B5000D7227F0190005FE0FEC39405400122EEA2
:100B60001208D4F583EBF0A3EAF0E91208EA1208C0
:100B7000C2F583E570F0A3E571F0E5721208EA12A0
:100B800008F2F583E573F0A3E574F0A3E5751208A8
:100B9000EB120918F583E576F0A3E577F0A3E57885
:100BA0001208EB120920F583E579F0A3E57AF0A3AA
:100BB000E57B1208EB240FF582E43400F583E57C35
:100BC000F0A3E57DF0A3E57EF0EFA806088002C360
:100BD00033D8FCFF90005FE012090AEFF090005F4D
:100BE000E004F0D32220001A209202051430921261
:100BF000E514D3943C4008E51494965002D200E4E6
:100C0000F51430006E30920405158067E515D39415
:100C1000014012E5159406500C0513E51625E04435
:100C200001F5168025E515D394064010E515940DC1
:100C3000500A0513E51625E0F516800EE515D39448
:100C4000004007C200E4F513F516E4F515E513605E
:100C5000225407701EE513131313541F14F58275E5
:100C60008300E51612014CE513B41807C200E4F541
:100C700013D322C322787FE4F6D8FD75817E020C5F
:100C8000BC0214EEE493A3F8E493A34003F68001BE
:100C9000F208DFF48029E493A3F85407240CC8C3B6
:100CA00033C4540F4420C8834004F456800146F6F0
:100CB000DFE4800B010204081020408090051FE44F
:100CC0007E019360BCA3FF543F30E509541FFEE44E
:100CD00093A360010ECF54C025E060A840B8E49310
:100CE000A3FAE493A3F8E493A3C8C582C8CAC58352
:100CF000CAF0A3C8C582C8CAC583CADFE9DEE780D7
:100D0000BE78A67C007D017BFF7A1579E07E007FAE
:100D100004120126E4F9A294339000A6F0A293E411
:100D200033A3F0A287E433A3F0A291E433A3F0123B
:100D30000DE0E0FF120DD4FE6F6008EEB40104E98F
:100D400004F527120DD4FF120DE0EFF0E9120DBAF1
:100D50000806E61870010609B904D4E5286527607D
:100D600011E4F9E9120DBAE4F608F609B904F485BC
:100D70002728E4F9AF01AD27120E9F09B904F52227
:100D8000F9F8AF24AE23AD22AC2112020F8F648E8E
:100D9000638D628C61E4F524F523F522F5217FE46F
:100DA0007E0CFDFCAB64AA63A962A861120184E415
:100DB0007BFF7A03F9F802020FEE75F00CA4242CE5
:100DC000F822EE75F00CA4242BF822AF061213348F
:100DD000EF64012274A629F582E43400F583E02251
:100DE00074A229F582E43400F58322EE2401FBE4A9
:100DF00033FAED6B22C0E0C0F0C083C082C0D07572
:100E0000D000C000C001C002C003C004C005C006BD
:100E1000C0070517758CB0758A3F120E4B12000380
:100E2000E517C39407400675170012107F1214B619
:100E3000D007D006D005D004D003D002D001D00016
:100E4000D0D0D082D083D0F0D0E032E50C30E74E65
:100E5000E50ED3950D4004E50D70430509E509C382
:100E60009508403AAF10121516500FE50DB50E0358
:100E7000E4F50F050E850B088003850A08E4F509E3
:100E8000AF10121489E50DC3950E5012E511B4018F
:100E90000DE559B40108E4F511AF1012148922AE22
:100EA00007120DCD701E120DEB7001EA6016120DC7
:100EB000B9E6FA08E6D39405EA94005007AF06C2F3
:100EC00002021285120DCB7026120DEB7001EA6042
:100ED0001E120DB9E6FC08E6D39405EC9400400F11
:100EE000AF06D202121285EF120DBAE4F608F6220E
:100EF0007492256DF582E43400F5832290009FA35F
:100F0000E0FDEDFEA3E0FDEDFFE4FCFDE56775F01F
:100F10000CA42274932568F582E43400F5832274CE
:100F2000942568F582E43400F58322E0FFE56775D7
:100F3000F003A422E56775F00CA4242EF822E559ED
:100F40007040E55A7008755A011215818013E55AF0
:100F5000B4010EE4F55AF529F535F541F54D1215B4
:100F600087E4FF120F837F01120F837F02120F832A
:100F70007F03120F837F04120F831211337FFF123E
:100F8000153122BF041090009EE054EFFFF0E559A8
:100F9000C454F05FF02290009EE0FE7401A80708A0
:100FA0008002C333D8FCF45EFE90009EF0EF75F033
:100FB0000CA42429F8E6FDA807088002C333D8FC56
:100FC0005E90009EF022E4F56DE5597017755901A9
:100FD000752A031210757FFF12153112158712152D
:100FE0005702151FE5596401701AF559121528E5C5
:100FF0005AB4010302158112158712105DF56DF4C4
:10100000FF12153122C0E0C0F0C083C082C0D0758D
:10101000D000C000C001C002C003C004C005C006AB
:10102000C00712094D12149BD007D006D005D0047A
:10103000D003D002D001D000D0D0D082D083D0F065
:10104000D0E032E4FDFCAB60AA5FA95EA85DC302FC
:1010500002A1E47E05FDFCA85DD30202A1E54125C5
:10106000E025E0FFE54D33333354F84FFFE53525F8
:10107000E04F452922753603754203754E0322E47D
:10108000F566F566E56675F00CA4242AF8E6B40169
:1010900010E559B4010B300108AF6612063EC201DB
:1010A000220566E566C3940440DA120AAEC2012244
:1010B0008F66E4F567756801F569F567AF67E56800
:1010C000A807088002C333D8FC5566F569AD67FFF1
:1010D0001202F60567E567C3940540E022E4F56D6A
:1010E000F56DE4256DFFE4341EFE121477120EF048
:1010F000EFF0120EF0E0B4FF05120EF0E4F0056D13
:10110000E56DC3940D40DB22E4F566F567F56712E3
:1011100008D212087760101208D21208A95008E508
:101120006712090AE042660567E567C3940540DF78
:10113000AF6622E4F56DFF7E1E121385E4F56DE4C3
:10114000256DFFE4341EFE7492256D120EF4E0FD51
:1011500012136B056DE56DC3940D40E322E55970E4
:1011600023E55A701FE52970087529011215518071
:101170000BE529B40106E4F529121557E4FF120F17
:101180008312113322E5597023E55A701FE535703B
:101190000875350112155D800BE535B40106E4F5DF
:1011A000351215637F01120F8312113322E5597036
:1011B00023E55A701FE541700875410112156980D9
:1011C0000BE541B40106E4F54112156F7F02120FE1
:1011D0008312113322E5597023E55A701FE54D70D3
:1011E00008754D01121575800BE54DB40106E4F547
:1011F0004D12157B7F03120F8312113322E4F56D1C
:10120000E5596401701AF559121528E55AB401031D
:1012100002158112158712105DF56DF4FF1215315C
:1012200022E4FFAE12EEC4131313540124FF92A064
:10123000EE25E0FED2810000C2810FBF08E7D28018
:101240000000C28022D282E559B40204E4F559229A
:10125000E559B4010F752A03753603754201754EC1
:101260000312156F22D295E559B40204E4F5592210
:10127000E559B4010F752A03753603754203754E9F
:101280000112157B22EF7005A202929022BF010588
:10129000A202928322BF0205A202928222BF03040D
:1012A000A20292952290009EE0FF5410F559EF544F
:1012B00008F54DEF5404F541EF5402F535EF5401B4
:1012C000F52922E50F7018750814750B14750A14AA
:1012D000F50E750D04750F01750C828F10F5112236
:1012E000E5596402600AE5596401600475590222F7
:1012F000E559B4010675360312156322E5596402F7
:10130000600AE5596401600475590222E559B40187
:101310000675420312156F22E5596402600AE55909
:101320006401600475590222E559B40106754E0343
:1013300012157B22EF7005A29433FF22BF0104A295
:10134000938009BF0204A2878002A291E433FF22A6
:10135000E50F7016750805750B05750A05F50E7510
:101360000D01750C828F1075110122A2AF9203122C
:101370001451438F0175FF8075EF02EDF0538FFE1E
:10138000A20392AF22A2AF9203121451438F0375AE
:10139000FF8075EF02E4F0538FFCA20392AF22D2DC
:1013A00090E559B40204E4F55922E559B4010975F0
:1013B0002A0112107512155722AF885388AF758C09
:1013C000B0758A3F758D96EF5440FEEF54104E4233
:1013D0008822E47F0E7E06121044400BE47FA47E38
:1013E00006121055500122C3227FEE7E02121043D6
:1013F000400BE47F847E03121055500122C3227FEC
:10140000B67E03121043400BE47F4C7E041210554D
:10141000500122C322E47F7E7E0412104440087FE4
:1014200014121052500122C322E47F467E0512108E
:101430004440087FDC121052500122C322E559704B
:101440000475590222E559B40106752A031215578D
:1014500022C2AF75FF8075EF028F828E8375B7A5AC
:1014600075B7F122E5C8540453C8FB75CBFF75CAA4
:101470003443C80442C822A2AF9203C2AF8F828E07
:1014800083E493FFA20392AF22EFF4FE551270059E
:10149000EE42128003EF52120212217B017A007990
:1014A0009F120BE55002D2012275BB0E75BC095389
:1014B000E8F843E88222E55AB40103020D01120A5A
:1014C0000122E559B40103021551C29022E559B435
:1014D000010302155DC28322E559B40103021569B7
:1014E000C28222E559B40103021575C29522120089
:1014F0002E12153AD2AF80FE75A41F75F1BF75D4B8
:10150000412275A52175F23F75D5C022758E0875EB
:10151000892143881022EFF45512C37001D322753C
:101520000C015312DF021221E4F50C4312200212C7
:101530002143120FEF52120212211215931215B508
:1015400002158D7597DE7597AD2275E60875A802B0
:10155000225312FE0212214312010212215312FDE4
:101560000212214312020212215312FB02122143E2
:1015700012040212215312F702122143120802121E
:10158000215312EF02122143121002122175123F51
:101590000212211210DD0212A575E3402275D10856
:1015A00022E4F5A92275A60122D29022D28322D26A
:1015B0008222D2952202075C0C1C0A8C08FC076C64
:1015C00005DC04B003840258012C0000015E012CEC
:1015D00000FA00C800960082006E005A00460032F1
:0415E0000000000007
:00000001FF
