:020000040000FA
:10000000021023E4FF1211220213270211D6E50F7A
:100010007018750814750B14750A14F50E750D0417
:10002000750F01750C828F10F51122020052E4FF4A
:10003000AE12EEC4131313540124FF92A0EE25E078
:10004000FED2810000C2810FBF08E7D2800000C24B
:100050008022320212808F6B8D6CE56C75F00AA4E1
:100060002465F582E43400F583E004F0E56C75F076
:100070000AA42466F582E43400F583E004F0E56B1D
:100080006017E56C75F00AA42464F582E43400F589
:1000900083E0656B7003020254E56C75F00AA424DA
:1000A00062F582E43400F583E0FEA3E0C39402EE3F
:1000B00094005019E56C75F00AA42462F582E434CA
:1000C00000F583E475F001120636020406E56C754E
:1000D000F00AA42460F582E43400F583E0FEA3E096
:1000E000C394F4EE94014040E56C75F00AA42469D1
:1000F000F582E43400F583E4F0E56C75F013A42494
:100100000CF582E43400F583E0FBA3E0FAA3E0F908
:10011000EA494B700302022CE56C75F013A4240C21
:10012000F582E43400020221E56C75F00AA4246033
:10013000F582E43400F583E0FEA3E0C39402EE947C
:1001400000500302022CE56C75F013A4240FF58215
:10015000E43400F583E0FBA3E0FAA3E0F9EA494BBD
:1001600070030201F8E56C75F00AA42469F582E4D5
:100170003400F583E0B40114E56C75F00AA4246939
:10018000F582E43400F583E4F002022CE56C75F0AE
:100190000AA42468F582E43400F583E0B40134E570
:1001A0006C75F013A42406F582E43400F583E0FBBB
:1001B000A3E0FAA3E0F9EA494B6018E56C75F01387
:1001C000A42406F582E43400F583A3E0FAA3E0F961
:1001D0001207B8E56C75F00AA42466F582E43400D1
:1001E000F583E4F0E56C75F00AA42468F582E43444
:1001F00000F5837401F08034E56C75F013A42406D7
:10020000F582E43400F583E0FBA3E0FAA3E0F9EA29
:10021000494B6018E56C75F013A42406F582E434AC
:1002200000F583A3E0FAA3E0F91207B8E56C75F0D6
:100230000AA42464F582E43400F583E56BF0E56CF0
:1002400075F00AA42460F582E43400F583E4F0A399
:10025000F0020406E56C75F00AA42460F582E4342B
:1002600000F583E475F001120636E56C75F00AA41A
:100270002460F582E43400F583E0FEA3E064024EDE
:1002800060030203A5E56C75F00AA42462F582E41C
:100290003400F583E4F0A3F0E56C75F013A4240FAB
:1002A000F582E43400F583E0FBA3E0FAA3E0F9EA89
:1002B000494B700302037AE56C75F00AA42468F5D3
:1002C00082E43400F583E064017078E56C75F00A2F
:1002D000A42465F582E43400F583E0C3941E5063E2
:1002E000E56C75F00AA42469F582E43400F58374A2
:1002F00001F0E56C75F00AA42468F582E43400F599
:1003000083E4F0E56C75F00AA42467F582E4340018
:10031000F583E4F0E56C75F013A4240FF582E43462
:1003200000F583E0FBA3E0FAA3E0F9EA494B700390
:10033000020406E56C75F013A4240FF582E4340082
:100340000203FBE56C75F00AA42469F582E434002D
:10035000F583E4F0E56C75F00AA42467F582E434D3
:1003600000F5837401F0E56C75F00AA42465F5824C
:10037000E43400F583E4F0020406E56C75F013A4A0
:100380002403F582E43400F583E0FBA3E0FAA3E064
:10039000F9EA494B6070E56C75F013A42403F5820B
:1003A000E434008056E56C75F00AA42460F582E41C
:1003B0003400F583E0FEA3E064F47003EE640170A2
:1003C00045E56C75F00AA42469F582E43400F583F0
:1003D000E4F0E56C75F013A42409F582E43400F52B
:1003E00083E0FBA3E0FAA3E0F9EA494B6018E56C6F
:1003F00075F013A42409F582E43400F583A3E0FA30
:10040000A3E0F91207B8E56C75F013A4240FF58288
:10041000E43400F583E0FBA3E0FAA3E0F9EA494BFA
:10042000700302051DE56C75F00AA42467F582E4EB
:100430003400F583E064017076E56C75F00AA4245D
:1004400065F582E43400F583E0C3941E4061E56CF9
:1004500075F013A42403F582E43400F583E0FBA3D4
:10046000E0FAA3E0F9EA494B6045E56C75F00AA4AF
:100470002467F582E43400F583E4F0E56C75F0134D
:10048000A42403F582E43400F583E0FBA3E0FAA39F
:10049000E0F9EA494B6018E56C75F013A42403F504
:1004A00082E43400F583A3E0FAA3E0F91207B8E58B
:1004B0006C75F00AA42468F582E43400F583E064E6
:1004C00001705AE56C75F00AA42466F582E43400E4
:1004D000F583E0C3941E4045E56C75F00AA42468DA
:1004E000F582E43400F583E4F0E56C75F013A424A0
:1004F00006F582E43400F583E0FBA3E0FAA3E0F91B
:10050000EA494B6018E56C75F013A42406F582E403
:100510003400F583A3E0FAA3E0F91207B822E70953
:10052000F608DFFA8046E709F208DFFA803E8882A3
:100530008C83E709F0A3DFFA8032E309F608DFFADB
:100540008078E309F208DFFA807088828C83E309FF
:10055000F0A3DFFA806489828A83E0A3F608DFFAD9
:10056000805889828A83E0A3F208DFFA804C80D227
:1005700080FA80C680D4806980F28033801080A6A3
:1005800080EA809A80A880DA80E280CA80338982FB
:100590008A83ECFAE493A3C8C582C8CCC583CCF0A7
:1005A000A3C8C582C8CCC583CCDFE9DEE7800D894E
:1005B000828A83E493A3F608DFF9ECFAA9F0EDFB55
:1005C0002289828A83ECFAE0A3C8C582C8CCC5839D
:1005D000CCF0A3C8C582C8CCC583CCDFEADEE880F6
:1005E000DB89828A83E493A3F208DFF980CC88F068
:1005F000EF60010E4E60C388F0ED2402B404005099
:10060000B9F582EB2402B4040050AF2323458223C2
:1006100090056E73F8BB010DE58229F582E5833AFA
:10062000F583E8F0225006E92582C8F622BBFE05D4
:10063000E92582C8F222C5F0F8A3E028F0C5F0F859
:10064000E582158270021583E038F022E88FF0A46D
:10065000CC8BF0A42CFCE98EF0A42CFC8AF0EDA449
:100660002CFCEA8EF0A4CDA8F08BF0A42DCC38257C
:10067000F0FDE98FF0A42CCD35F0FCEB8EF0A4FE5C
:10068000A9F0EB8FF0A4CFC5F02ECD39FEE43CFCF1
:10069000EAA42DCE35F0FDE43CFC2275F00875820D
:1006A00000EF2FFFEE33FECD33CDCC33CCC58233FC
:1006B000C5829BED9AEC99E58298400CF582EE9B01
:1006C000FEED9AFDEC99FC0FD5F0D6E4CEFBE4CD1F
:1006D000FAE4CCF9A88222B800C1B90059BA002DB9
:1006E000EC8BF084CFCECDFCE5F0CBF97818EF2F72
:1006F000FFEE33FEED33FDEC33FCEB33FB10D703A1
:10070000994004EB99FB0FD8E5E4F9FA227818EF49
:100710002FFFEE33FEED33FDEC33FCC933C910D7A8
:10072000059BE99A4007EC9BFCE99AF90FD8E0E4B5
:10073000C9FAE4CCFB2275F010EF2FFFEE33FEED8B
:1007400033FDCC33CCC833C810D7079BEC9AE8995B
:10075000400AED9BFDEC9AFCE899F80FD5F0DAE43D
:10076000CDFBE4CCFAE4C8F922EB9FF5F0EA9E4217
:10077000F0E99D42F0E89C45F022E6FC08E6FD0821
:10078000E6FE08E6FF22E6FB08E6F908E6FA08E6D8
:10079000CBF822ECF608EDF608EEF608EFF622D0DC
:1007A00083D082E493F608740193F608740293F6FA
:1007B00008740393F67404738A838982E4738F68E0
:1007C000E4F569F56DF56CF56BF56AEF75F00CA461
:1007D0002430F8E6FB702890009EA3E0FDEDFEA318
:1007E000E0FDEDFFE4FCFDE56875F00CA42431F8B4
:1007F000120793E56875F00CA42430F8760122EB1B
:100800006401600302092D90009EA3E0FDEDFEA3AC
:10081000E0FDEDFFE4FCFDE56875F00CA42431F883
:10082000120786C31207696003020912F569E569B8
:10083000C3940C507E74922569F582E43400F583EC
:1008400074932569F582E43400F583E0FDEDFE74D0
:10085000942569F582E43400F583E0FDEDFFE48F33
:100860006D8E6CF56BF56AE56875F00CA42431F8B3
:1008700012077AAB6DAA6CA96BA86AC312076970DC
:100880002974922569F582E43400F583E4F07493C9
:100890002569F582E43400F583E4F074942569F564
:1008A00082E43400F583E4F0800974032569F56976
:1008B00002082E90009EE0FFE56875F003A42492E4
:1008C000F582E43400F583EFF090009FE0FFE568E7
:1008D00075F003A42493F582E43400F583EFF090DF
:1008E00000A0E0FFE56875F003A42494F582E434E9
:1008F00000F583EFF0E56875F00CA4242AF8760380
:10090000AF687401A807088002C333D8FCF4FF1253
:10091000000EE56875F00CA42430F8E4F6E568757F
:10092000F00CA42431F812079F0000000022E4F527
:1009300065F564F563F562F566C2EDAFBDAEBEFC6C
:10094000FDE5242FF524E5233EF523ED3522F522A0
:10095000EC3521F521E526152670021525E52645FD
:10096000256003020A01300203020A01F5257526FB
:1009700032FB7A08F9F8AF24AE23AD22AC2112067F
:10098000D78F658E648D638C62E4F524F523F522A0
:10099000F5217FE47E0CFDFCAB65AA64A963A86227
:1009A00012064CE47BFF7A03F9F81206D78F658EA6
:1009B000648D638C62D20275BB06E4F566E566253C
:1009C000E02479F582E43417F583E493FE7401930F
:1009D000FFE4FCFDAB65AA64A963A862C3120769C2
:1009E0004017E56625E0248DF582E43417F583E4AD
:1009F00093F55B740193F55C220566E566B40ABD68
:100A000022E5264525704C300249F5257526327BB6
:100A100032FAF9F8AF24AE23AD22AC211206D78FFB
:100A2000658E648D638C62E4F524F523F522F5214F
:100A30007FE47E0CFDFCAB65AA64A963A862120684
:100A40004CE47BFF7A03F9F81206D78F618E608D34
:100A50005F8C5E220117000112FF20322900000086
:100A60000000000000000000000000000000000086
:100A70000000000000000000000000000000000076
:100A80000000000000000000000000000000000165
:100A90005D00025B0032045E0000000004210000E3
:100AA000000002250800C1020127000128004400BF
:100AB000A10000000043009E0000004C00920000D6
:100AC00000000000000000000000C101C10001138F
:100AD0000001140001150001160060600000000014
:100AE0000000000000000000000000000000000006
:100AF00000000000000000000000000000000000F6
:100B000000000000000000000000000000000000E5
:100B100000000000000000000000000000000000D5
:100B200000000000000000000000000000000000C5
:100B30000000000000000000000000000000603223
:100B40000060000000000000000000000000000045
:100B50000000000000000000000000000000000095
:100B60000000000000000000000000000000000085
:100B700000000000007571FF75721675738F757433
:100B8000FF7575147576677577FF75781675792317
:100B9000757AFF757B17757C6A757DFF757E157597
:100BA0007F077BFF7A147940120D687571FF7572AB
:100BB0001675739A7574FF7575147576877577FF5A
:100BC00075781575797F757AFF757B17757C6D75EE
:100BD0007DFF757E15757F257BFF7A147919120DBF
:100BE000687571FF7572167573A57574FF75751448
:100BF0007576A77577FF75781575799B757AFF758A
:100C00007B17757C70757DFF757E15757F437BFF47
:100C10007A1379F2120D687571FF7572167573B0DB
:100C20007574FF7575147576C77577FF75781575CA
:100C300079B7757AFF757B17757C73757DFF757E47
:100C400015757F617BFF7A1379CB120D6875710082
:100C50007572007573007574FF7575127576BE75C3
:100C600077FF75781175797D757A00757B00757CD5
:100C700000757DFF757E13757F547BFF7A1379A411
:100C8000020D68E4FEEE75F00CA4242CF80806E6CC
:100C900018700106EE75F00CA42429F8E6640160D2
:100CA00003020D5EAF061215D3EF64017024EE75DA
:100CB000F00CA4242BF8E67019EE75F00CA4242C8B
:100CC000F8E4F608F6EE75F00CA4242BF876010291
:100CD0000D5EEE75F00CA4242BF8E66401702EE591
:100CE0005C24FBFDE55B34FFFCEE75F00CA4242CCA
:100CF000F8E6FA08E6B50515ECB50211AF061215CF
:100D0000D3BF0109AF06C2031214E78051EE75F09C
:100D10000CA4242BF8E66401702EEE75F00CA424CC
:100D20002CF8E6FC08E6B55C1FECB55B1BAF0612C1
:100D300015D3BF0113AF06D2031214E7EE75F00C02
:100D4000A4242BF8E4F68016AF061215D3EF700E2C
:100D5000EE75F00CA4242BF8E6B40102E4F60EEED6
:100D600064046003020C85227F0190005FE0FEC3F3
:100D70009405400122EE75F013A42400F582E434BA
:100D800000F583EBF0A3EAF0A3E9F0EE75F013A40D
:100D90002403F582E43400F583E571F0A3E572F0F5
:100DA000A3E573F0EE75F013A42406F582E4340095
:100DB000F583E574F0A3E575F0A3E576F0EE75F044
:100DC00013A42409F582E43400F583E577F0A3E564
:100DD00078F0A3E579F0EE75F013A4240CF582E425
:100DE0003400F583E57AF0A3E57BF0A3E57CF0EE33
:100DF00075F013A4240FF582E43400F583E57DF04B
:100E0000A3E57EF0A3E57FF0EFA806088002C333D8
:100E1000D8FCFF90005FE075F013A42412F582E483
:100E20003400F583EFF090005FE004F0D322E4F5A6
:100E300068F56CF56BF56AF569300179F568E56878
:100E4000C3940C4003020EED74922568F582E434DD
:100E500000F583E0FF90009EE0FEEF6E704F74930C
:100E60002568F582E43400F583E0FF90009FE0FE02
:100E7000EF6E703974942568F582E43400F583E0F0
:100E8000FF9000A0E0FEEFB50623E56875F003844F
:100E9000FF75F00CA4242EF87600087601E559645D
:100EA000016005C2031214E77FDF0215EF7403250A
:100EB00068F5688089E4F568E56875F00CA4242E6F
:100EC000F8E6FE08E664014E701AE56875F00CA4B9
:100ED000242EF8E4F608F6E55964016007D203AF62
:100EE000681214E70568E568C3940440CB2278A52E
:100EF0007C007D017BFF7A1779A17E007F041205BB
:100F0000EEE4F9A294339000A5F0A293E433A3F0A9
:100F1000A287E433A3F0A291E433A3F074A129F5EE
:100F200082E43400F583E0FF74A529F582E43400FF
:100F3000F583E0FE6F6008EEB40104E904F5277460
:100F4000A529F582E43400F583E0FF74A129F58238
:100F5000E43400F583EFF0E975F00CA4242CF808D4
:100F600006E61870010609B904B2E5286527601580
:100F7000E4F9E975F00CA4242CF8E4F608F609B9B4
:100F800004F0852728E4F9AF01AD271210AF09B9A5
:100F900004F52220001A2092020514309212E51462
:100FA000D3943C4008E51494965002D200E4F51422
:100FB00030006E30920405158067E515D39401402A
:100FC00012E5159406500C0513E51625E04401F5CD
:100FD000168025E515D394064010E515940D500AAA
:100FE0000513E51625E0F516800EE515D3940040AF
:100FF00007C200E4F513F516E4F515E51360225475
:1010000007701EE513131313541F14F58275830024
:10101000E516120614E513B41807C200E4F513D35D
:1010200022C322787FE4F6D8FD75817F02106A0220
:101030001677E493A3F8E493A34003F68001F20843
:10104000DFF48029E493A3F85407240CC8C333C405
:10105000540F4420C8834004F456800146F6DFE470
:10106000800B0102040810204080900A54E47E01A5
:101070009360BCA3FF543F30E509541FFEE493A3E3
:1010800060010ECF54C025E060A840B8E493A3FAF5
:10109000E493A3F8E493A3C8C582C8CAC583CAF081
:1010A000A3C8C582C8CAC583CADFE9DEE780BEAE71
:1010B000071215D3EF64017029EE2401FBE433FA23
:1010C000ED6B7001EA601BEE75F00CA4242CF8E6C1
:1010D000FA08E6D39405EA94005007AF06C203026B
:1010E00014E7AF061215D3EF64017035EE2401FB4F
:1010F000E433FAED6B7001EA6027EE75F00CA4247E
:101100002CF8E6FC08E6D39405EC94004013AF06F7
:10111000D2031214E7EF75F00CA4242CF8E4F608BF
:10112000F622E4F567F568F568E56875F013A42420
:1011300000F582E43400F583E0FBA3E0FAA3E0F9D4
:10114000EA494B602CE56875F013A42400F582E4AD
:101150003400F583A3E0FAA3E0F91207B85012E5D2
:101160006875F013A42412F582E43400F583E0429C
:10117000670568E568C3940540AFAF6722E4F56E84
:10118000E559701D755901752A03753603754203BB
:10119000754E037FFF1216F4121748121718021625
:1011A000E2E5596401702EF5591216EBE55AB401C7
:1011B00003021742121748E54125E025E0FFE54DFF
:1011C00033333354F84FFFE53525E04F4529F56EAD
:1011D000F4FF1216F422C0E0C0F0C083C082C0D079
:1011E00075D000C000C001C002C003C004C005C06B
:1011F00006C0070517758CB0758A3F12122C1200B5
:1012000003E517C3940740067517001212F612166D
:1012100083D007D006D005D004D003D002D001D0AF
:1012200000D0D0D082D083D0F0D0E032E50C30E7CF
:101230004EE50ED3950D4004E50D70430509E50913
:10124000C39508403AAF101216D9500FE50DB50EF0
:1012500003E4F50F050E850B088003850A08E4F505
:1012600009AF1012164AE50DC3950E5012E511B4E0
:10127000010DE559B40108E4F511AF1012164A2228
:10128000C0E0C0F0C083C082C0D075D000C000C034
:1012900001C002C003C004C005C006C00712092E69
:1012A00012165CD007D006D005D004D003D002D0EF
:1012B00001D000D0D0D082D083D0F0D0E032E4F59D
:1012C0006EE5596401702EF5591216EBE55AB4011A
:1012D00003021742121748E54125E025E0FFE54DDE
:1012E00033333354F84FFFE53525E04F4529F56E8C
:1012F000F4FF1216F422E4F567F567E56775F00C64
:10130000A4242AF8E6B40110E559B4010B30010811
:10131000AF671207BEC201220567E567C3940440A8
:10132000DA120E2EC201228F67E4F568756901F5A5
:101330006AF568AF68E569A807088002C333D8FC7E
:101340005567F56AAD68FF1200560568E568C394F5
:101350000540E022E5597024E55A7008755A0112DB
:1013600017428013E55AB4010EE4F55AF529F53514
:10137000F541F54D1217487FFF1216F4221216FDA3
:101380001216BB1216C512176612170412166A122D
:10139000175A12175E12160A1216371216CF1217A4
:1013A0006202170BE47FEE7E02FDFCAB61AA60A92E
:1013B0005FA85EC31207694010E47F847E03FDFCD2
:1013C000A85ED3120769500122C322E47FB67E03D0
:1013D000FDFCAB61AA60A95FA85EC312076940105B
:1013E000E47F4C7E04FDFCA85ED312076950012205
:1013F000C322E47F7E7E04FDFCAB61AA60A95FA8E6
:101400005EC31207694010E47F147E05FDFCA85EF0
:10141000D3120769500122C322E47F467E05FDFCFA
:10142000AB61AA60A95FA85EC31207694010E47FA0
:10143000DC7E05FDFCA85ED3120769500122C322A1
:10144000E47F0E7E06FDFCAB61AA60A95FA85EC3C7
:101450001207694010E47FA47E06FDFCA85ED3124B
:101460000769500122C322D290E559B40204E4F581
:101470005922E559B4010F752A01753603754203E7
:10148000754E0312171822D283E559B40204E4F50D
:101490005922E559B4010F752A03753601754203C7
:1014A000754E0312172422D282E559B40204E4F5E2
:1014B0005922E559B4010F752A03753603754201A7
:1014C000754E0312173022D295E559B40204E4F5A3
:1014D0005922E559B4010F752A0375360375420385
:1014E000754E0112173C22EF7005A203929022BFA5
:1014F0000105A203928322BF0205A203928222BFAA
:101500000304A203929522E5597019E55A7015E576
:10151000297006752901021712E529B40106E4F5C0
:101520002912171822E5597019E55A7015E535701A
:101530000675350102171EE535B40106E4F53512CE
:10154000172422E5597019E55A7015E541700675A2
:10155000410102172AE541B40106E4F541121730B2
:1015600022E5597019E55A7015E54D7006754D0163
:10157000021736E54DB40106E4F54D12173C22E59D
:10158000596402600AE5596401600475590222E554
:1015900059B4010675360312172422E55964026016
:1015A0000AE5596401600475590222E559B401063F
:1015B00075420312173022E5596402600AE5596446
:1015C00001600475590222E559B40106754E0312F3
:1015D000173C22EF7005A29433FF22BF0104A293AF
:1015E0008009BF0204A2878002A291E433FF22E5B2
:1015F0000F7016750805750B05750A05F50E750D46
:1016000001750C828F1075110122AF885388AF7558
:101610008CB0758A3F758D96EF5440FEEF54104E96
:10162000428822E559700475590222E559B4010631
:10163000752A0312171822E5C8540453C8FB75CB4A
:10164000FF75CA3443C80442C822EFF4FE55127035
:1016500005EE42128003EF521202002E7B017A0047
:10166000799E120F935002D2012275BB0E75BC09F0
:1016700053E8F843E8822212137DD299D2AF1217B1
:101680005480FEE55AB40103020EEE120C8322E5EB
:1016900059B40103021712C29022E559B4010302A2
:1016A000171EC28322E559B4010302172AC28222FF
:1016B000E559B40103021736C2952275A41F75F1CE
:1016C000BF75D4412275A52175F23F75D5C022752D
:1016D0008E0875892143885022EFF45512C370019A
:1016E000D322750C015312DF02002EE4F50C4312D5
:1016F0002002002E43120FEF521202002E7597DEC9
:101700007597AD2275E34075E1012275E60875A86D
:1017100002225312FE02002E43120102002E531227
:10172000FD02002E43120202002E5312FB02002E75
:1017300043120402002E5312F702002E4312080235
:10174000002E5312EF02002E43121002002E7512CB
:101750003F02002E12177602174E75D10822E4F5CB
:10176000A9224398102275A60122D29022D2832268
:10177000D28222D29522020B750C1C0A8C08FC071F
:101780006C05DC04B003840258012C0000015E01EA
:101790002C00FA00C800960082006E005A00460035
:0517A000320000000012
:00000001FF
